:100000000C9463000C948B000C948B000C948B006C
:100010000C948B000C948B000C948B000C948B0034
:100020000C948B000C948B000C948B000C948B0024
:100030000C948B000C948B000C948B000C948B0014
:100040000C9482030C948B000C94EE050C948B00A2
:100050000C948B000C948B000C948B000C948B00F4
:100060000C94EF000C948B0000000000240027008B
:100070002A0000000000250028002B0000000000DE
:1000800023002600290004040404040404040202DA
:100090000202020203030303030301020408102007
:1000A0004080010204081020010204081020000012
:1000B0000007000201000003040600000000000029
:1000C0000000EE00A70611241FBECFEFD4E0DEBF74
:1000D000CDBF11E0A0E0B1E0E0E4FFE002C0059098
:1000E0000D92A234B107D9F711E0A2E4B1E001C04A
:1000F0001D92A33FB107E1F710E0C6ECD0E004C0C9
:100100002297FE010E946307C23CD107C9F70E94F3
:100110007B030C949E070C940000A0E0B0E0E3E9A0
:10012000F0E00C946F07EC01A880B980CA80DB80F6
:10013000A114B104C104D10441F484E2A82E89EDD4
:10014000B82E8BE5C82E87E0D82EC601B5012DE16B
:1001500033EF41E050E00E94320727EA31E440E00B
:1001600050E00E94DE067B018C01C601B5012DE145
:1001700033EF41E050E00E943207CA01B9012CEE92
:1001800034EF4FEF5FEF0E94DE066E0D7F1D801F84
:10019000911F97FF04C06150704080409048688371
:1001A00079838A839B839B01AC015F77B901CA0184
:1001B000CDB7DEB7EAE00C948B070E948D0008955E
:1001C00088E291E00E948D00089560932801709369
:1001D000290180932A0190932B01089508951F927D
:1001E0000F920FB60F9211242F933F934F935F936B
:1001F0006F937F938F939F93AF93BF93EF93FF93EF
:100200008091B90090E0887F90708036910509F464
:10021000E2C081369105CCF58832910509F47BC0A6
:1002200089329105B4F48031910509F46FC08131B0
:1002300091053CF4009709F438C1089709F040C1D2
:1002400065C08831910509F466C0809709F038C10E
:100250007FC08034910509F4A3C08134910544F432
:100260008033910509F47FC0C89709F029C186C081
:100270008035910509F486C08835910509F495C04B
:100280008834910509F01CC19EC08839910509F494
:1002900004C189399105ECF48837910509F49BC0B4
:1002A000893791054CF48836910509F494C080375C
:1002B000910509F005C18FC08838910509F4EDC09A
:1002C0008039910509F48DC08038910509F0F8C096
:1002D00088C0803B910509F4B2C0813B91054CF484
:1002E000803A910509F491C0883A910509F0E8C077
:1002F000A6C0803C910509F4D4C0883C910509F45E
:10030000D0C0883B910509F0DBC0B1C080914301AA
:100310008093BB00C0C090914A0180914B01981717
:1003200078F490914A01E0914801F0914901E90F78
:10033000F11D80818093BB009F5F90934A01ABC009
:1003400085ED8093BC008091BC0084FDFCCFB6C0DD
:1003500080E28093530185ED8093BC008091BC00C6
:1003600084FDFCCFABC080E38093530185ED809387
:10037000BC008091BC0084FDFCCFA0C088E38093CA
:1003800053018FC080914A019091BB00E0914801D8
:10039000F0914901E80FF11D90838F5F80934A012E
:1003A00090914A0180914B0174C080914A019091D3
:1003B000BB00E0914801F0914901E80FF11D9083E5
:1003C0008F5F80934A0185ED8093BC008091BC00D3
:1003D00084FDFCCF73C083E08093420110925201F0
:1003E0005AC080915201803208F057C0809152016A
:1003F0009091BB00E0915001F0915101E80FF11D87
:1004000090838F5F8093520146C080915201803269
:1004100048F480915201E0915001F0915101E80FB0
:10042000F11D108260915201E0914601F091470167
:10043000809150019091510170E0099532C084E0A3
:100440008093420110924E0110924F01E0914401BD
:10045000F0914501099580914F01882341F481E095
:1004600080934F01E0914C01F0914D0110829091E9
:100470004E01E0914C01F0914D01E90FF11D808199
:100480008093BB009F5F90934E0190914E018091AD
:100490004F01981710F485EC01C085E88093BC00EB
:1004A0000FC085EC8093BC0009C01092530185ED0C
:1004B0008093BC008091BC0084FDFCCF109242016F
:1004C000FF91EF91BF91AF919F918F917F916F912C
:1004D0005F914F913F912F910F900FBE0F901F9002
:1004E000189560E177E280E090E00E94CA030895E9
:1004F000CF92DF92FF920F931F93CF93DF936C0104
:10050000EB016730710508F0A2C081EE91E060E078
:1005100071E00E946504AE01662757FD6095762F55
:1005200081EE91E02AE030E00E942C0581EE91E01E
:100530006DE071E00E946504FF24F394FC224F2DCE
:1005400050E060E070E081EE91E02AE030E00E944F
:100550002C0581EE91E06FE071E00E946504D69574
:10056000C795CE018170082F482F50E060E070E001
:1005700081EE91E02AE030E00E942C0581EE91E0CE
:100580006FE071E00E946504D695C795FE01E170A9
:100590001E2F4E2F50E060E070E081EE91E02AE0E7
:1005A00030E00E942C0581EE91E06DE071E00E9448
:1005B000650481EE91E061E171E00E946504F6015D
:1005C00040815181662757FD6095762F81EE91E03D
:1005D0002AE030E00E942C0581EE91E06FE071E0AE
:1005E0000E946504F60142815381662757FD60959C
:1005F000762F81EE91E02AE030E00E942C0581EE1A
:1006000091E06FE071E00E946504F601448155813C
:10061000662757FD6095762F81EE91E02AE030E065
:100620000E942C0581EE91E06DE071E00E9465046E
:10063000F60180816F2D0E946105F6018281602F95
:100640000E946105F6018481612F0E946105DF919E
:10065000CF911F910F91FF90DF90CF9008950E944E
:10066000710261E070E080E090E027E030E040E07F
:1006700050E00E94D0059B01AC018CE291E0B901F1
:100680000E94780261E070E080E090E027E030E0D6
:1006900040E050E00E94D0059B01AC0182E391E074
:1006A000B9010E9478020895CF93DF9381EE91E023
:1006B00040E05BE460E070E00E942B0681EE91E098
:1006C00068E171E00E946504C0E0D0E0FE01E45DF5
:1006D000FE4F808161E00E944105FE01EE5CFE4F0D
:1006E000808161E00E9441052296C630D10571F7F4
:1006F000DF91CF9108950E94F4030E9454030E9459
:100700002F03FDCF1F920F920FB60F9211242F933C
:100710003F938F939F93AF93BF9380915801909194
:100720005901A0915A01B0915B0130915C01019691
:10073000A11DB11D232F2D5F2D3720F02D570196C0
:10074000A11DB11D20935C01809358019093590124
:10075000A0935A01B0935B0180915401909155018F
:10076000A0915601B09157010196A11DB11D809332
:10077000540190935501A0935601B0935701BF9136
:10078000AF919F918F913F912F910F900FBE0F903E
:100790001F901895EF92FF920F931F937B018C018E
:1007A0008FB7F894409158015091590160915A01C6
:1007B00070915B018FBF2FB7F89480915801909191
:1007C0005901A0915A01B0915B012FBF841B950B79
:1007D000A60BB70BE816F9060A071B0760F71F916F
:1007E0000F91FF90EF900895789484B5826084BD56
:1007F00084B5816084BD85B5826085BD85B5816025
:1008000085BDEEE6F0E0808181608083E1E8F0E084
:10081000808182608083808181608083E0E8F0E075
:10082000808181608083E1EBF0E08081846080835F
:10083000E0EBF0E0808181608083EAE7F0E0808196
:1008400084608083808182608083808181608083F6
:100850008081806880831092C10008950F931F9358
:10086000CF93DF938C01EB0109C02196D801ED9164
:10087000FC910190F081E02DC80109956881662303
:10088000A1F7DF91CF911F910F910895EF92FF9201
:100890000F931F93CF93DF938C017B01EA010CC070
:1008A000D7016D917D01D801ED91FC910190F0810E
:1008B000E02DC80109952197209791F7DF91CF91FD
:1008C0001F910F91FF90EF900895DC01ED91FC9145
:1008D0000280F381E02D099508952F923F924F9267
:1008E0005F926F927F928F929F92AF92BF92CF92C0
:1008F000DF92EF92FF920F931F93DF93CF93CDB7C9
:10090000DEB7A0970FB6F894DEBF0FBECDBF1C01B7
:100910006A017B01411551056105710549F4DC014E
:10092000ED91FC910190F081E02D60E3099554C0B8
:10093000882499245401422E55246624772401E00A
:1009400010E00C0F1D1F080D191DC701B601A301F2
:1009500092010E941007F80160830894811C911C89
:10096000A11CB11CC701B601A30192010E9410078E
:10097000C901DA016C017D01C114D104E104F10463
:10098000F1F681E0E82EF12CEC0EFD1EE80CF91CCE
:100990003E010894611C711CD501C4010197A10995
:1009A000B1096C01C818D90814C0F601EE0DFF1D7D
:1009B00060816A3010F4605D01C0695CD101ED9125
:1009C000FC910190F081E02DC10109950894E108A6
:1009D000F1086E147F0449F7A0960FB6F894DEBFB5
:1009E0000FBECDBFCF91DF911F910F91FF90EF9080
:1009F000DF90CF90BF90AF909F908F907F906F903F
:100A00005F904F903F902F900895EF92FF920F9339
:100A10001F93CF93DF93EC017A018B0177FF0FC017
:100A2000E881F9810190F081E02D6DE20995109542
:100A30000095F094E094E11CF11C011D111DCE0104
:100A4000B801A7012AE00E946D04DF91CF911F91A8
:100A50000F91FF90EF900895DC012115310541F4CD
:100A6000ED91FC910190F081E02D642F099508959E
:100A70002A30310519F40E94050508950E946D047D
:100A80000895282F30E0C90186569F4FFC019491AC
:100A90002A573F4FF9018491882391F0E82FF0E025
:100AA000EE0FFF1FE859FF4FA591B491662329F47B
:100AB0008C91909589238C9308958C91892B8C939C
:100AC0000895482F50E0CA0182559F4FFC012491A0
:100AD000CA0186569F4FFC0194914A575F4FFA0115
:100AE00034913323D1F1222331F1233021F4809149
:100AF00080008F7705C0243031F4809180008F7D95
:100B00008093800018C0213019F484B58F7704C019
:100B1000223021F484B58F7D84BD0DC0263021F4B0
:100B20008091B0008F7705C0273029F48091B00004
:100B30008F7D8093B000E32FF0E0EE0FFF1FEE58A3
:100B4000FF4FA591B491662329F48C919095892348
:100B50008C9308958C91892B8C930895EF92FF923A
:100B60000F931F937B018C01611571058105910520
:100B700029F420E030E040E050E00BC00E94E000AB
:100B8000A80197010E943207AC01CB01DA019C0158
:100B9000AD01B901CA011F910F91FF90EF90089527
:100BA000EF92FF920F931F937B018C0162177307E3
:100BB0008407950764F4261B370B480B590BCA01B1
:100BC000B9010E94AE05E60EF71E081F191FB701F6
:100BD000C8011F910F91FF90EF9008951F920F92FF
:100BE0000FB60F9211242F933F934F935F936F9300
:100BF0007F938F939F93AF93BF93EF93FF93409116
:100C0000C600E091DD01F091DE01CF01019660E8C0
:100C100070E00E94FD069C018091DF019091E0014F
:100C20002817390739F0E35AFE4F40833093DE012D
:100C30002093DD01FF91EF91BF91AF919F918F9133
:100C40007F916F915F914F913F912F910F900FBEC8
:100C50000F901F901895AF92BF92CF92DF92EF92B4
:100C6000FF920F931F93CF93DF936C017A018B0157
:100C7000DC011496AD90BC901597CB01BA0122E02F
:100C800030E040E050E00E943207205C3D4B404F96
:100C90005F4FCA01B901A80197010E943207C9013B
:100CA000DA010197A109B109292F3A2F4B2F5527B6
:100CB00047FD5A950196A11DB11DE5012883E60166
:100CC000EE81FF8181508083EA85FB85208141E0B0
:100CD00050E0CA010E8402C0880F991F0A94E2F7FF
:100CE000282B2083EA85FB852081CA010F8402C05E
:100CF000880F991F0A94E2F7282B2083EA85FB8549
:100D00008081088802C0440F551F0A94E2F7842BA3
:100D10008083DF91CF911F910F91FF90EF90DF9033
:100D2000CF90BF90AF900895FC01A085B185218937
:100D30008C9190E0022E02C0959587950A94E2F777
:100D400080FFF6CF0484F585E02D608308958CE361
:100D500091E09093E2018093E1018DE591E0909321
:100D6000E4018093E30185EC90E09093E6018093A9
:100D7000E50184EC90E09093E8018093E70180EC3A
:100D800090E09093EA018093E90181EC90E09093E8
:100D9000EC018093EB0186EC90E09093EE01809360
:100DA000ED0184E08093EF0183E08093F00187E020
:100DB0008093F10185E08093F2010895629FD00154
:100DC000739FF001829FE00DF11D649FE00DF11D06
:100DD000929FF00D839FF00D749FF00D659FF00DB5
:100DE0009927729FB00DE11DF91F639FB00DE11DA2
:100DF000F91FBD01CF011124089597FB092E072685
:100E00000AD077FD04D049D006D000201AF470959E
:100E100061957F4F0895F6F7909581959F4F0895BE
:100E2000A1E21A2EAA1BBB1BFD010DC0AA1FBB1FEE
:100E3000EE1FFF1FA217B307E407F50720F0A21B60
:100E4000B30BE40BF50B661F771F881F991F1A94CD
:100E500069F760957095809590959B01AC01BD01F7
:100E6000CF01089597FB092E05260ED057FD04D01B
:100E7000D7DF0AD0001C38F4509540953095219565
:100E80003F4F4F4F5F4F0895F6F7909580957095BF
:100E900061957F4F8F4F9F4F0895AA1BBB1B51E158
:100EA00007C0AA1FBB1FA617B70710F0A61BB70BDA
:100EB000881F991F5A95A9F780959095BC01CD017F
:100EC0000895EE0FFF1F0590F491E02D09942F92E5
:100ED0003F924F925F926F927F928F929F92AF92CA
:100EE000BF92CF92DF92EF92FF920F931F93CF9317
:100EF000DF93CDB7DEB7CA1BDB0B0FB6F894DEBFAE
:100F00000FBECDBF09942A88398848885F846E84D3
:100F10007D848C849B84AA84B984C884DF80EE801D
:100F2000FD800C811B81AA81B981CE0FD11D0FB626
:100F3000F894DEBF0FBECDBFED010895F894FFCF4A
:100F4000646973706C6179696E673A20000A0020E9
:100F50000050696E733A200046696E697368656473
:100F60002073657475700A00010000000200030020
:100F700004000500060007000000000094062E048F
:020F8000460425
:00000001FF
